:10000000980704000000000000000000000000004D
:1000100000000000000000000000000000000000E0
:1000200000000000000000000000000000000000D0
:1000300000000000000000000000000000000000C0
:1000400000000000000000000000000000000000B0
:1000500000000000000000000000000000000000A0
:100060000000000000000000000000000000000090
:100070000000000000000000000000000000000080
:100080000000000000000000000000000000000070
:100090000000000000000000000000000000000060
:1000A0000000000000000000000000000000000050
:1000B0000000000000000000000000000000000040
:1000C0000000000000000000000000000000000030
:1000D0000000000000000000000000000000000020
:1000E0000000000000000000000000000000000010
:1000F0000000000000000000000000000000000000
:1001000000000000000000000000000000000000EF
:1001100000000000000000000000000000000000DF
:1001200000000000000000000000000000000000CF
:1001300000000000000000000000000000000000BF
:1001400000000000000000000000000000000000AF
:10015000000000000000000000000000000000009F
:10016000000000000000000000000000000000008F
:10017000000000000000000000000000000000007F
:10018000000000000000000000000000000000006F
:10019000000000000000000000000000000000005F
:1001A000000000000000000000000000000000004F
:1001B000000000000000000000000000000000003F
:1001C000000000000000000000000000000000002F
:1001D000000000000000000000000000000000001F
:1001E000000000000000000000000000000000000F
:1001F00000000000000000000000000000000000FF
:100F30008F812000F0FF200020A0B70000002000DB
:100F400034A0B700400020004420B700640802002D
:100F5000000000008A1F78008B1F78008C1F78002B
:100F60008D1F780036FE0700CAC0B300E5FE0700FB
:100F7000F0FF2F00A8A2B700C822EF00C622EF00A2
:100F80000020EF00104088000020EF004040880063
:100F90000020EF0030408800400F200040408800D3
:100FA000100F2000104088003D0020003C00200071
:100FB0003B0020001A002000100F2000801F780046
:100FC00010002000801F780004FF07004F00B100D0
:100FD000FB0F20004A00200081FD07007D0F20004C
:100FE000FBFF2F00FCFF2F001420EF001BFD07006C
:100FF0007D0F2000FBFF2F00FCFF2F001A002000B8
:1010000016FD07007D0F2000FBF422000C002000DD
:101010001420EF0099FD0700FB0F20001420EF00C3
:101020006FFD07001AC0B300B6FE07006D802000F8
:10103000EC8020000B812000AA80200057FF0700D1
:10104000418020008048780052408000634080004A
:10105000F0F42200010020000010E1000198E100FE
:1010600013003A00408020001004E000100032001D
:10107000008120001086FB001B0020001A002000C9
:1010800024FE070011C0B3000081200010C84000FA
:10109000000000001D0020000C8120003A0020000C
:1010A0000B0020000808F80047FE07002F00B100E1
:1010B000DCFF3700CF0678004F067800CF057800B8
:0810C0004F057800FFFF370027
:100840000000FA00FCFF0700FBFF0700D222A9000E
:10085000D202A900C602A900C622A900C642A90068
:10086000C662A900D622A900D602A900CA62A900C0
:10087000CA42A900CA22A900CA02A900CA22A80025
:10088000CA02A800E5FF0700E3FF0700E3FF070037
:10089000E1FF0700E1FF0700DFFF0700CA02A90030
:1008A000DEFF0700DCFF0700DCFF0700CA22A9000B
:1008B000CA62A800D9FF0700D7FF0700CA62A900D3
:1008C000CA02A800D5FF0700CA02A900D3FF07008B
:1008D000D1FF0700D1FF0700CA02A800CFFF070021
:1008E000CDFF0700CA02A900CCFF0700CA62A8001A
:1008F000CA42A800CA22A800CA02A800C7FF07006F
:10090000C5FF0700008020001000A0000080FA0052
:0409100000000600DD
:0408380000000600B6
:10081C000000FA00D622A8000CFF0700D622A9007F
:0C082C000AFF07000080FA000000060030
:04045800000006009A
:0408180000000600D6
:100B04000000FA008A80FB0002E0AE00CA62A9007D
:100B140002E0AF00CA62A80002C0AE00CA42A90047
:100B240002C0AF00CA42A80002A0AE00CA22A900B7
:100B340002A0AF00CA22A8000280AE00CA02A90027
:100B44000280AF00CA02A800008020001000A600A6
:100B5400D602A8001000A700D602A9002EFF0700A5
:100B64000260AE00CA62A9000260AF00CA62A800B7
:100B74000240AE00CA42A9000240AF00CA42A80027
:100B84000220AE00CA22A9000220AF00CA22A80097
:100B94000200AE00CA02A9000200AF00CA02A80007
:100BA400008020001000A600D602A8001000A700B4
:100BB400D602A90018FF0700008020001000A6003C
:100BC4000200370013FF0700010037001AFF070077
:080BD4000080FA000000060099
:04083C0000000600B2
:100BDC000000FA008A1F78008B1F78008C1F7800A9
:100BEC008D1F78004EB997003EBB97009163A9000A
:100BFC009183A90091A3A90091E3A9008A9FBE004B
:100C0C00FB0F20004A00200072FE07004F05BE00BB
:100C1C00861F7800821F780021FE07004F00B1006C
:100C2C00700063007000E10001003A008E43A800E0
:100C3C000CA0AE00210037000C60AE001000370095
:100C4C00FD0F20001620EF001820EF001420EF00FD
:100C5C00FFFD0700FD0F20001620EF001820EF000D
:100C6C001A002000FAFD0700F00F2000F10F200001
:100C7C00811F7800800078004F0078000C0037004E
:100C8C007D0F20001620EF001820EF001420EF003D
:100C9C00EFFD07007D0F20001620EF001820EF005D
:100CAC001A002000EAFD0700710F2000700F2000D1
:100CBC0081027800000278000E003700FD0D200044
:100CCC001620EF001820EF001420EF00E0FD0700C5
:100CDC00FD0D20001620EF001820EF001A00200058
:100CEC00DBFD0700F10F2000700F2000810278005F
:100CFC0000027800850678001620EF001820EF001F
:100D0C001420EF005AFE0700850678001620EF002D
:100D1C001820EF001A00200055FE0700840678000A
:100D2C001620EF001820EF002A00200050FE0700CC
:100D3C00840678001620EF001820EF003A002000FF
:100D4C004BFE0700840678001620EF001820EF00F9
:100D5C004A00200046FE0700840678001620EF00AB
:100D6C001820EF005A00200041FE0700FB0F200066
:100D7C001420EF0017FE0700CF0678004F0678000E
:100D8C00CF0578004F0578000080FA0000000600BF
:1005E0000000FA001600E200170032008A007800CE
:1005F00080C0B3000000FB008008DD00003920004F
:100600009080680000702000808060000039200029
:1006100090806800811C880000392000104078001C
:100620008040780000CEB30080C060000180FB00F5
:10063000C500DE000180FB000A00E100010032007D
:10064000F5FF37000B0037008A00780080C0B30048
:100650000000FB008008DD00003920009080680069
:1006600000702000808060000039200090806800C9
:0C067000811C88000080FA0000000600D9
:1004AC000000FA00CEB897003EBA970061005500E4
:1004BC0000057800618055008005780061005600C9
:1004CC00000678006180560080067800E1825000BA
:1004DC008A41780060C0B3008380FB000001FB0000
:1004EC008209DD002039200090C1690000CCB300E6
:1004FC0080C161002039200090C1690020392000A2
:10050C00034878008B4078002039200090C06800A8
:10051C00F0C3B30080C060002039200090C0680098
:10052C0020392000014878008540780040392000AF
:10053C0090C06800E7C060004039200090C068009F
:10054C0040392000014878008C41780030C0B3005D
:10055C008380FB000001FB008209DD004039200094
:10056C0090C1690080C3B30080C161004039200094
:10057C0090C1690040392000034878008D00780054
:10058C0080C0B3000000FB008008DD004039200073
:10059C00908068000070200080806000403920004E
:1005AC0090806800A11C88000840AF000100370053
:1005BC0094C3A8000800AE000100370094E3A80023
:1005CC000820AE000100370095C3A8000080FA0097
:0405DC000000060015
:10045C000000FA008A1F78008D1F78006050E100C0
:10046C0006003A008D1F78000A3320001A20EF0096
:10047C0060FF07002F00B100050037008D1F7800CA
:10048C008A3320001A20EF005AFF07002F00B1001A
:10049C00CF0678004F0578000080FA0000000600B7
:100200000000FA00CEB897008B0037000260AE0005
:10021000030037004258DD00000D78001900370058
:10022000630120006280410090007800C0FF21003F
:10023000008D60001A00780061007000000D7800E9
:1002400062014500020578006280410010007800DC
:1002500063006000CA00DD004658DE0000897000BF
:10026000620145000205780092007800F03F20000E
:1002700000896000F0032000008065004A00DD0076
:10028000000D78007200370002A0AE001F0037009A
:100290000260AE00060037004258DD00000D780015
:1002A0001A00780061007000000D78001600370019
:1002B000630120006280410090007800C0FF2100AF
:1002C000008D60001A00780061007000000D780059
:1002D000620145000205780062804100100078004C
:1002E00063006000CA00DD004658DE00008970002F
:1002F000E200450001057800F00320000080650061
:100300004A00DD00800878001600370063012000F5
:100310006280410090007800C0FF2100008D6000E5
:100320009A007800E0FF2F00008D60006201450018
:1003300002057800628041001000780063006000D0
:10034000CA00DD004658DE0000897000E20045006A
:1003500001057800F0032000008065004A00DD0000
:10036000800878003A0037000260AE000C003700C9
:10037000F0032000008065004200DD00000D7800E1
:1003800000FC2F00008065004500DD001A0D7000A4
:100390009A007800E0FF2F00008D600025003700F4
:1003A00063012000628041009000780000F021008D
:1003B000008060004300DD00000D7800E280410015
:1003C000C00F2000110060001A0D70001A007800A4
:1003D00061007000000D78006201450002057800A0
:1003E000628041001000780063006000CE00DD00F4
:1003F00000002C00008065004200DE0000897000D3
:1004000000FC2300008065004600DE001A0D70002D
:10041000E200450001057800F0032000008065003F
:100420004A00DD00800878009A007800001820005B
:10043000008D7000060037006168E10073FF320034
:100440006068E10090FF32006268E100C6FF3200A0
:080450000080FA000000060024
:10067C000000FA008A1F78008D1F780024003700D4
:10068C008D1F78000A3020001D002000D9FE0700C5
:10069C002F00B100290037008D1F78008A30200010
:1006AC001D002000D3FE07002F00B10023003700EF
:1006BC008D1F78000A3120001D002000CDFE0700A0
:1006CC002F00B1001D0037008D1F78008A312000EB
:1006DC001D002000C7FE07002F00B10017003700D7
:1006EC008D1F78000A3220001D002000C1FE07007B
:1006FC002F00B100110037008D1F78008A322000C6
:10070C001D002000BBFE07002F00B1000B003700BE
:10071C006050E100DAFF32006150E100DEFF320090
:10072C006250E100E2FF32006350E100E6FF32006C
:10073C006450E100EAFF3200EFFF3700CF0678008B
:0C074C004F0578000080FA000000060055
:100D9C000000FA000020EF00800E78008EE3AE0019
:100DAC001100370005382000F4FF2F009603A9002E
:100DBC0097E3AE00030037001D007800E80E7000CA
:100DCC0097E3A9008E43AE00060037008E83BF0068
:100DDC00670060009D0E70001D00780061006000CF
:100DEC00800E7800170037007EE3AE00120037004B
:100DFC00023720000820EF009623A90097C3AE000D
:100E0C00030037001D007800E80E700097C3A9009E
:100E1C007E83BF00670060009D0E70001D0078008F
:100E2C006200E100030031009D0078000008200002
:100E3C00808E7000020037000020EF003700370072
:100E4C00820278001500A6000A0037009D00780089
:100E5C0000022000808E70008A9FBE007B0F200055
:100E6C000505780039FE07004F05BE00008DBE0059
:100E7C00060037008A9FBE00FB0F20000505780096
:100E8C0032FE07004F05BE00008DBE00648042009C
:100E9C0080017800100078006F006000000178007D
:100EAC00000E78001390A600030037009D00780018
:100EBC0000042000808E7000628041000A20EF0048
:100ECC0082017800000178000580FB000300E1003E
:100EDC00070031000580FB00808045000580FB0089
:100EEC0000004100904878000A60EC00F6FF3700E3
:100EFC0096E3AE00030037001D007800F00E700082
:100F0C0096E3A9000800E200020032008EE3A9007B
:100F1C00010037007EE3A900F0FF2F000080FA00EB
:040F2C0000000600BB
:100758000400FA00000020000007980000002000B4
:10076800100798001660AE00060037001A007800DF
:100778004200DE008000EB00000798001107980097
:1007880017003700E0014700628141009A007800B5
:10079800C0FF210000896000620045000005780064
:1007A800E2804100100078004A00DE0091087000E5
:1007B8009A007800F03F2000008060004600DD00CD
:1007C8008009780062004500000578001000780074
:1007D800CA00DE00600047001080700080097800C1
:1007E8000E0090009E0090000080FA0000000600B5
:100914000000FA008A1F78000A0037000A08200045
:10092400110037000A0C20000F0037004A0920008C
:100934000D0037004A0D20000B0037000A08200084
:10094400090037006150E100F4FF32006250E10019
:10095400F4FF32006350E100F4FF32006450E10020
:10096400F4FF3200F5FF37006180550000004500B8
:100974000005780000457800610007000080200031
:100984001000A1000420EF00020046001004E00063
:1009940007003200020046008A1F780010457800E4
:1009A40094FF07004F0578000420EC00F6FF3700A1
:1009B400008020001000A0004F0578000080FA009D
:0409C4000000060029
:1007F8000000FA00008020001000A100BF000700E0
:10080800008020001000A0000080FA000000060010
:1009C8000000FA008A1F78008B1F78004EBA970043
:1009D8006E63AF000300370006362000E5362000BE
:1009E8000E0037005E63AF000400370006352000B4
:1009F800E035200080027800080037004E63AF0021
:100A08000300370006342000E034200002003700DD
:100A18000020EF0035003700800278000860AF0042
:100A28000B0037008C9FBE002D0020000B067800BD
:100A38008A05780006057800700F2000801F78006E
:100A4800EDFD07002F00B1004F06BE000A00370079
:100A58008C9FBE002D0020000B0678008A057800C8
:100A680006057800F00F2000801F7800E2FD0700DF
:100A78002F00B1004F06BE006401430082017800D8
:100A88009200780000D82F00008960006F8066000F
:100A98004300DD009309700008C0AF000300370071
:100AA8009300780000202000808970006281410056
:100AB8000020EF0085017800800278000D28E10011
:100AC8000500310085004100050046009048780087
:100AD8000A20EC00F9FF3700E309620013007800F0
:100AE8006800700080097800F0FF2F00CF057800BB
:0C0AF8004F0578000080FA0000000600A6
:1010C8000A8020000B0020000B0009000B1D78008F
:0410D800000006000E
:0200000401F009
:1C000000068700003F000000B38700000F3100000F3300000700000003C0000092
:00000001FF
