:060000000A128A11FA2F1A
:100E9A00203083120313940083160313940108006D
:100EAA00F00070088312031393008C1D5D2F5E2FD0
:100EBA005A2F8C110800831203139301831603130C
:100ECA00141C682F692F632F14108312031313083D
:100EDA000800F30002300A128A1155270A128A11F1
:100EEA0073080A128A1155270A128A1171080A12FE
:100EFA008A1155270A128A1172080A128A1155276D
:100F0A000A128A110800F20003300A128A115527C0
:100F1A000A128A1172080A128A1155270A128A11AC
:100F2A0071080A128A1155270A128A110A128A119D
:100F3A0060270A128A11F80078080800831603133A
:100F4A008711071687128713FF3088000A128A1141
:100F5A004D270A128A111A30F6005E30F5006E30FB
:100F6A00F400F40BB62FF50BB62FF60BB62F0000D4
:100F7A008312031387135030F1000808F20025305A
:100F8A000A128A116E270A128A118312031387170B
:100F9A001A30F6005E30F5006E30F400F40BD32FF1
:100FAA00F50BD32FF60BD32F0000831203138713ED
:100FBA005030F10025300A128A1188270A128A1144
:100FCA00F7008312031387174D30F6001930F50026
:100FDA004F30F400F40BEF2FF50BEF2FF60BEF2F3A
:100FEA00F62FBD2F0A128A110028F701F801830192
:060FFA000A128A11A32F68
:02400E00BA3FB7
:00000001FF
