:060000000A128A11FC2F18
:100DA6008316031311151119D92EDA2ED62E831296
:100DB60003138C1108008316031311141118E42E63
:100DC600E52EE12E831203138C110800F000700843
:100DD6008312031393008C1DF12EF22EEE2E8C112E
:100DE60083160313111FF82EF92EFE2E0A128A11EE
:100DF600D3260A128A110800831603139413283087
:100E06008312031394002708FA002608F90003103A
:100E1600F90DFA0D0310F90DFA0D7908F0007A08AC
:100E2600F1000030F11BFF30F200F3000130F70053
:100E36003130F6002D30F5000030F4000A128A1128
:100E46005F270A128A117008FF3E83160313930068
:100E56008715071608000B17831603138C158312C4
:100E6600031394168030A6001A30A7000A128A11BE
:100E7600FF260A128A110A128A11DE260A128A111E
:100E86001E300A128A11E9260A128A110A128A11DA
:100E9600D3260A128A111A30FD005E30FC006E302D
:100EA600FB00FB0B542FFC0B542FFD0B542F0000A3
:100EB6003E2F0A128A11002883120313A101F31F81
:100EC600652F662F732FF009F109F209F309F00A6D
:100ED6000319F10A0319F20A0319F30AA101A10A77
:100EE600F71F762F772F862FF409F509F609F709EC
:100EF600F40A0319F50A0319F60A0319F70A013069
:100F0600FF007F08A1060030A5000030A4000030D5
:100F1600A3000030A2007308720471047004031960
:100F2600952F962FE32FA001A00AA62F0130F800D7
:100F36000310F00DF10DF20DF30DF80B9B2F0130A0
:100F4600FF007F08A007F31FA92FAA2F992F0130B2
:100F5600F8000310A20DA30DA40DA50DF80BAC2FE0
:100F660073087702031DC12F72087602031DC12F75
:100F760071087502031DC12F70087402031CC42F6B
:100F8600C52FD42F7008F4027108031C710FF502E7
:100F96007208031C720FF6027308031C730FF70224
:100FA600221401300310F30CF20CF10CF00CFF3E8E
:100FB600031DD52F0130A002031DE22FE32FAA2F18
:100FC60021080319E72FE82FF32FA209A309A40983
:100FD600A509A20A0319A30A0319A40A0319A50A53
:100FE6002508F3002408F2002308F1002208F00087
:0A0FF600080083010A128A112E2F51
:02400E00BA3FB7
:00000001FF
